:1000000000308A00812900000A108A100A11820734
:1000100028340C34013406340A108A100A1182077D
:10002000573445344C3443344F344D344534003424
:100030000A108A100A1182076C346F3467343D3419
:1000400000340A108A100A118207313431342E34F8
:100050003234353438343834B03420344E3400340B
:100060000A108A100A1182076C34613474343D34EA
:1000700000340A108A100A118207373435342E34BE
:100080003734383430343434B034203445340034E8
:100090000A108A100A118207463475346C346C34A5
:1000A0005F34533470346534653464343D343634ED
:1000B00030346B346D342F34683400340A108A10B5
:1000C0000A11820738342E34353432343434313422
:1000D000B0344E3400340A108A100A1182073734C3
:1000E00036342E343934333436343634B034203464
:1000F000453400340A108A100A11820753344334FD
:1001000048344F344F344C345F345A344F344E34C7
:10011000453400340A108A100A11820753347034AF
:100120006534653464343D34343430346B346D3488
:100130002F34683400340A108A100A1182075334AD
:1001400050344534453444345F34423452344534B9
:1001500041344B344534523400340A108A100A11A9
:100160008207533470346534653464343D3432343A
:1001700030346B346D342F346834003423308400D1
:10018000831300080319D2280530F800F701F70B94
:10019000C728F80BC6282E30F700F70BCD28D0283B
:1001A000800BC42800342A0EF039F7000F30080500
:1001B00077048800000008140230F700F70BDE28EF
:1001C0000000081000348810F03083168800831275
:1001D00008150000081400000808080E0F39AA00CE
:1001E000081000000814F428F5280808080E0F3934
:1001F000A900081000308316880083122A0EF70029
:10020000F030F70577082904F8007808A900A91B41
:10021000E428271C88102718881400000811000003
:100220000810280EA9000F30A9052908AA00D3201C
:1002300028080F39A900AA00D32000340030831603
:10024000880083128810081108100F30A300BE2008
:100250000130A1002108033C031C36290330AA0009
:10026000D3200530A300BE20A10A2A290230AA000B
:10027000D320A1012108033C031C472921080420A5
:10028000A200A7012208A800E320A10A3A298A11A6
:100290000A129629240B4D2950294030A5005129D6
:1002A000A50101302302A50725088038A600A70173
:1002B0002608A800E320003422080C3A0319672915
:1002C000063A03196F29023A031975297A29A701F9
:1002D0000130A800E3200230A300BE2080290130B5
:1002E000A3000230A4004A218029A7011030A800F1
:1002F000E32080290130A7002208A800E3208029FC
:100300000034840183131F3083051930831699004C
:10031000A230980090308312980083161F149F1407
:100320001F159F1107309C0083121E290430A10065
:10033000FA30A300BE20A10B98290C30A2005C214A
:100340000430A3000130A4004A21A10121080C209F
:1003500000380319AF29A10AA2005C21A629A20036
:100360005C210430A100FA30A300BE20A10BB32908
:10037000831687100430831292000C309D00831680
:1003800006148312061C292AFF309B003230A3007A
:10039000BE200C30A2005C210130A300A4004A2141
:1003A000A1012108182000380319DA29A10AA200A6
:1003B0005C21D129A2005C210530A3000130A400FA
:1003C0004A21A1012108212000380319EB29A10AA3
:1003D000A2005C21E229A2005C210130A3000230CE
:1003E000A4004A21A1012108302000380319FC296A
:1003F000A10AA2005C21F329A2005C210530A30020
:100400000230A4004A21A101210839200038031933
:100410000D2AA10AA2005C21042AA2005C21FA3064
:10042000A300BE200C30A2005C210130A300A40078
:100430004A21A1012108482000380319232AA10AD2
:10044000A2005C211A2AA2005C216430A300BE2015
:100450002C2B831686148312861CA72AAF309B0090
:100460003230A300BE200C30A2005C210130A3007A
:10047000A4004A21A1012108182000380319442AA8
:10048000A10AA2005C213B2AA2005C210530A30046
:100490000130A4004A21A10121085E20003803197F
:1004A000552AA10AA2005C214C2AA2005C2101303D
:1004B000A3000230A4004A21A10121083020003805
:1004C0000319662AA10AA2005C215D2AA2005C2110
:1004D0000530A3000230A4004A21A10121086B20AD
:1004E00000380319772AA10AA2005C216E2AA20013
:1004F0005C21FA30A300BE200C30A2005C21013048
:10050000A300A4004A21A10121087A200038031980
:100510008D2AA10AA2005C21842AA2005C2132302B
:10052000A300BE200130A3000230A4004A21A10193
:1005300021088A2000380319A12AA10AA2005C21FF
:10054000982AA2005C213230A300BE202C2B8316F7
:1005500006158312061D252B0F309B003230A30099
:10056000BE200C30A2005C210130A300A4004A216F
:10057000A1012108182000380319C22AA10AA200EB
:100580005C21B92AA2005C210530A3000130A4003F
:100590004A21A1012108212000380319D32AA10AE8
:1005A000A2005C21CA2AA2005C210130A300023013
:1005B000A4004A21A1012108302000380319E42AAF
:1005C000A10AA2005C21DB2AA2005C210530A30065
:1005D0000230A4004A21A101210839200038031962
:1005E000F52AA10AA2005C21EC2AA2005C21963027
:1005F000A300BE200C30A2005C210130A300A400A7
:100600004A21A10121089B20003803190B2BA10AC4
:10061000A2005C21022BA2005C213230A300BE208C
:100620000130A3000230A4004A21A1012108AD201D
:10063000003803191F2BA10AA2005C21162BA2006F
:100640005C213230A300BE202C2B9B013230A30052
:0C065000BE200C30A2005C21BF2963001A
:02400E00723FFF
:00000001FF
;PIC16F877A
